:020000040800F2
:10000000300A0020FD13000805140008071400083A
:10001000091400080B1400080D140008000000006B
:100020000000000000000000000000000F140008A5
:10003000111400080000000013140008F10F00085C
:1000400017140008171400081714000817140008E4
:1000500017140008171400081714000817140008D4
:1000600017140008171400081714000817140008C4
:1000700017140008171400081714000817140008B4
:1000800017140008171400081714000800000000D7
:10009000000000000000000000000000171400082D
:1000A0001714000817140008171400081714000884
:1000B0001714000817140008171400081714000874
:1000C0001714000817140008171400081714000864
:1000D000171400089B1000081714000817140008D4
:1000E0001714000817140008171400080000000077
:1000F0000000000000000000000000000000000000
:1001000000000000000000000000000000000000EF
:100110000000000000000000171400081714000879
:1001200000F002F800F03AF80AA090E8000C8244CF
:100130008344AAF10107DA4501D100F02FF8AFF2AC
:10014000090EBAE80F0013F0010F18BFFB1A43F0B5
:10015000010318471415000034150000103A24BF9D
:1001600078C878C1FAD8520724BF30C830C144BF1C
:1001700004680C607047000000230024002500265E
:10018000103A28BF78C1FBD8520728BF30C148BFFA
:100190000B6070471FB51FBD10B510BD01F02DFAE3
:1001A0001146FFF7F7FF01F081F801F04BFA03B4B5
:1001B000FFF7F2FF03BC01F04FFA000010B5044650
:1001C000CC48844208D10121042000F03AFB0021F0
:1001D000042000F036FB46E0C748844208D10121E4
:1001E000082000F02EFB0021082000F02AFB3AE056
:1001F000C248844208D10121102000F022FB0021D6
:10020000102000F01EFB2EE0BD48844208D10121E1
:10021000202000F016FB0021202000F012FB22E03D
:10022000B848844208D10121402000F00AFB002197
:10023000402000F006FB16E0B348844208D10121BB
:10024000802000F0FEFA0021802000F0FAFA0AE097
:10025000AE48844207D10121801500F0F2FA002156
:10026000A01500F0EEFA10BD10B50121084600F00F
:10027000E8FA0021012000F0E4FA10BD2DE9F04178
:10028000024600250026002000230024002791F8C4
:1002900003C00CF00F0591F803C00CF0100CBCF17A
:1002A000000F03D091F802C04CEA050591F800C098
:1002B000BCF1000F31D0146800202BE04FF0010C8E
:1002C0000CFA00F3B1F800C00CEA03069E4220D1FC
:1002D00083004FF00F0C0CFA03F7BC4305FA03FC44
:1002E0004CEA040491F803C0BCF1280F06D14FF08A
:1002F000010C0CFA00FCC2F814C00AE091F803C02B
:10030000BCF1480F05D14FF0010C0CFA00FCC2F80B
:1003100010C0401C0828D1D31460B1F800C0BCF153
:10032000FF0F34DD546800202EE000F1080C4FF080
:10033000010808FA0CF3B1F800C00CEA03069E426B
:1003400021D183004FF00F0C0CFA03F7BC4305FAE0
:1003500003FC4CEA040491F803C0BCF1280F05D15A
:1003600000F1080C08FA0CF8C2F8148091F803C0E8
:10037000BCF1480F07D100F1080C4FF0010808FA52
:100380000CF8C2F81080401C0828CED35460BDE899
:10039000F0814FF6FF710180022181700421C1704C
:1003A00070470246002093680B400BB1012000E02B
:1003B000002070470146886880B2704702460020DE
:1003C000D3680B400BB1012000E0002070470146CC
:1003D000C86880B2704701617047416170470AB1D7
:1003E000016100E041617047C16070474FF48032A5
:1003F0000A43826181618261826982697047024633
:100400000020434B18684FF68073184040EA0210F2
:1004100008433F4B186070473E49C8617047F0B5CC
:100420000A46002300240021002500F00046B6F112
:10043000004F02D1364EF16901E0354E7168C0F3CC
:10044000034583B200F44016B6F5401F08D121F0F1
:1004500070612F4E766826F070662D4F7E6012E038
:1004600000F48016B6F5801F06D1032606FA05F4BF
:10047000A14341F0706106E0460D360103FA06F62D
:10048000B14341F0706122B1460D360103FA06F620
:10049000314300F00046B6F1004F02D11C4EF1612D
:1004A00001E01B4E7160F0BD30B500228B071C0FC0
:1004B0000F2303FA04F2164B08338C1053F8243040
:1004C0009343134C08348D1044F8253023468C1088
:1004D00053F824308C07240F00FA04F423430C4C07
:1004E00008348D1044F8253030BD0A49DC310860ED
:1004F0007047000000080140000C0140001001405E
:100500000014014000180140001C0140002001407F
:100510000000014000002042E648006840F0010071
:10052000E449086008464068E3490840E1494860FA
:1005300008460068E1490840DE490860084600684E
:1005400020F4802008600846406820F4FE004860DF
:100550004FF41F0088600020C8627047D5490968C1
:1005600021F48031D34A11601146096821F48021B9
:100570001160B0F5803F03D0B0F5802F0ED106E0BA
:10058000CC49096841F48031CA4A116007E0C94981
:10059000096841F4A021C74A116000E000BF00BF14
:1005A000704710B501460022002300204A11012A9D
:1005B00002D1C04C236806E0022A02D1BD4C236A56
:1005C00001E0BC4C636A01F01F02012494401C400E
:1005D0000CB1012000E0002010BD38B500200090D3
:1005E0000024002500BF3120FFF7DBFF05460098FF
:1005F000401C00900098B0F5A06F01D0002DF2D003
:100600003120FFF7CEFF08B1012400E0002420468E
:1006100038BD01460020A74A106820F0F80040EAE3
:10062000C10010607047A64908607047024600206C
:10063000A04B586820F4741042EA010318439D4B04
:10064000586070479E490866704702460020994BE3
:10065000D86A9C4B184042EA01031843954BD86274
:10066000704701460020934A506820F00300084379
:10067000506070478F48406800F00C00704701469A
:1006800000208C4A506820F0F0000843506070470A
:1006900001460020874A506820F4E060084350601B
:1006A000704701460020834A506820F4605040EAB9
:1006B000C1005060704729B17E4A527A02437D4B97
:1006C0005A7204E07B4A527A82437A4B5A727047DC
:1006D0007B49D8310860704701460020754A506850
:1006E00020F440400843506070470021714A203296
:1006F0001170704A82F82010012802D004280AD113
:1007000004E001216B4A2032117005E00521694A9D
:100710002032117000E000BF00BF70476A490860D6
:1007200070476449096A0143624A11627047664929
:1007300044390860704770B500210023002400226E
:1007400000255C4E766806F00C0121B1042905D025
:10075000082921D105E05D4E066020E05B4E066071
:100760001DE0544E766806F47013524E766806F417
:100770008034022606EB93431CB9554E5E43066057
:1007800009E04C4EF66A06F00F06751C4F4EB6FB9C
:10079000F5F65E43066002E04C4E066000BF00BF07
:1007A000444E766806F0F00109094A4E725C06680C
:1007B000D64046603F4E766806F4E061090A454E31
:1007C000725C4668D64086603A4E766806F46051A0
:1007D000C90A404E725C4668D640C660354E76689F
:1007E00006F44041890B3C4E725CC668B6FBF2F6DB
:1007F000066170BD29B12F4A526902432D4B5A61DF
:1008000004E02C4A526982432A4B5A61704729B14D
:10081000284A92690243274B9A6104E0254A92696B
:100820008243244B9A61704729B1224AD26902431C
:10083000204BDA6104E01F4AD26982431D4BDA6122
:10084000704729B11B4AD26802431A4BDA6004E0B0
:10085000184AD2688243174BDA60704729B1154AAB
:1008600012690243134B1A6104E0124A126982436F
:10087000104B1A617047144940390860704710499D
:10088000C86470470B49C87170470A48406A40F015
:10089000807008494862704701460020054A926806
:1008A0000A400AB1012000E0002070470149887227
:1008B00070470000001002400000FFF8FFFFF6FE46
:1008C00000004242F0FFFEFF8004424200127A0024
:1008D00000093D00000000201000002010B5044673
:1008E000BE48844208D101218014FFF7AAFF0021ED
:1008F000A014FFF7A6FF16E0B948844208D10121F1
:100900000014FFF7ABFF00212014FFF7A7FF0AE058
:10091000B448844207D10121C013FFF79FFF002193
:10092000E013FFF79BFF10BD10B50022028802F410
:1009300041520B884C8823438C882343CC88234323
:100940000C8923434C8923438C892343CC8923433B
:100950001A430280838B4FF2FF74234083830B8AF8
:10096000038210BD2DE9F04F85B005460C464FF0CF
:10097000000902274FF000084FF0010B0026B24695
:10098000A88B4FF240010840A88302202884B5F8C4
:100990001C90A068022801D100BF38E0A08810B9DF
:1009A0004FF0010B01E04FF0020B8D48854200D162
:1009B00000E000BF6846FFF7BEFEDDF800A0E0885B
:1009C000B0F5007F0AD14FEA1A2000EB800040000A
:1009D000A168B0FBF1F0401D86B20BE04FEA4B106E
:1009E000BAFBF0F000EB80004000A168B0FBF1F032
:1009F000401D86B20A20B6FBF0F606F00108A6EB11
:100A00000800C0F34F074FF6FF7000EA0828022FD6
:100A100001DBFF2F02DD02274FF00008E08840EAEB
:100A2000080038432884A088A189084361880843C6
:100A30002188084340F4006040EA0909A5F81C90A9
:100A400005B0BDE8F08F0021018041808180C18028
:100A5000018141818181C18107210182704700218B
:100A6000018041808180C1800221816000218181DB
:100A7000704721B1028842F04002028004E00288FF
:100A80004FF6BF731A400280704721B1828B42F447
:100A90008062828304E0828B4FF6FF331A408283A8
:100AA000704730B5002400230C110125A540ABB2DE
:100AB0001AB185881D43858002E085889D43858025
:100AC00030BD1AB183880B43838002E083888B4357
:100AD00083807047818170470146888970474FF64F
:100AE000FF62914204D0028842F48072028004E0E6
:100AF00002884FF6FF631A400280704721B1828856
:100B000042F00402828004E082884FF6FB731A40B0
:100B10008280704702884FF2FF731A400280028879
:100B20000A4302807047018841F480510180704778
:100B300021B1028842F40052028004E002884DF69E
:100B4000FF731A400280704702460020012901D03D
:100B5000108B00E0908A70470146088A7047B1F513
:100B6000804F04D1028842F48042028004E002886F
:100B70004BF6FF731A40028070470246002013892B
:100B80000B400BB1012000E000207047CA430281F6
:100B90007047F0B50246002000240023002501F034
:100BA0000F070126BE40B4B20B1101269E40B3B21E
:100BB000968806EA03051689264016B10DB1012074
:100BC00000E00020F0BD10B5002201F00F04012369
:100BD000A3409AB2D343038110BD0000003001400E
:100BE00000380040003C004010B50446FB488442F9
:100BF00009D101218803FFF724FE00214FF4804032
:100C0000FFF71FFE32E0F648844209D10121480473
:100C1000FFF724FE00214FF40030FFF71FFE25E010
:100C2000F048844209D101218804FFF717FE002112
:100C30004FF48020FFF712FE18E0EB48844209D100
:100C40000121C804FFF70AFE00214FF40020FFF73E
:100C500005FE0BE0E548844208D101210805FFF7B5
:100C6000FDFD00214FF48010FFF7F8FD10BD2DE9C8
:100C7000F04786B005460E460024A24600BFA146B6
:100C80000027B08900B100BF2F462C8A4CF6FF70B8
:100C90000440F08804432C82AC894EF6F3100440E3
:100CA000B08831890843718908430443AC81AC8A18
:100CB0004FF6FF400440B0890443AC8201A8FFF71F
:100CC0003AFDC648874202D1DDF810A001E0DDF808
:100CD0000CA0A88900F4004040B10AEBCA0000EB68
:100CE0000A1031684900B0FBF1F807E00AEBCA00CE
:100CF00000EB0A1031688900B0FBF1F86420B8FB02
:100D0000F0F004012009642101FB1089A88900F496
:100D1000004040B1322000EBC900B0FBF1F000F020
:100D20000700044308E0322000EB09106421B0FB07
:100D3000F1F000F00F0004432C8106B0BDE8F0870D
:100D40004FF41651016000218180C18001810C2186
:100D5000418100218181704710B502460020108A30
:100D60004FF2FF0318400B884C8823438C882343A1
:100D7000CC8823431843108210BD0021018041809C
:100D80008180C180704721B1828942F40052828102
:100D900004E082894DF6FF731A4082817047F0B5F6
:100DA0000346002400260025002040F66A17B942B9
:100DB00000D100BF1846C1F3421401F01F060127FD
:100DC00007FA06F5012C01D10C3004E0022C01D108
:100DD000103000E014301AB107682F43076002E0BA
:100DE0000768AF430760F0BD1AB1838A0B43838263
:100DF00002E0838A8B4383827047028A4FF6F07346
:100E00001A400282028A0A430282704782894FF2A4
:100E1000FF731A40828182890A438281704721B11F
:100E2000828942F00202828104E082894FF6FD73DA
:100E30001A4082817047028A4FF6DF731A4002829D
:100E4000028A0A430282704721B1028A42F4804238
:100E5000028204E0028A4BF6FF731A400282704756
:100E6000C1F308028280704701468888C0F30800F9
:100E70007047818941F0010181817047028BD2B2B4
:100E80000283028B42EA012202837047028B02F442
:100E90007F420283028B0A430283704721B1828A18
:100EA00042F02002828204E0828A4FF6DF731A4009
:100EB0008282704721B1828A42F01002828204E06D
:100EC000828A4FF6EF731A408282704721B1828A7C
:100ED00042F00802828204E0828A4FF6F7731A40D9
:100EE0008282704721B1828942F40042828103E00C
:100EF0008289C2F30E028281704721B1828A42F454
:100F00000062828204E0828A4FF2FF731A4082827A
:100F10007047828A4FF6FB731A408282828A0A43A4
:100F20008282704721B1828A42F00202828204E00A
:100F3000828A4FF6FD731A40828270470246002073
:100F4000B1F5007F00D100BF13880B400BB1012029
:100F500000E00020704701F40072B2F5007F00D17C
:100F600000BFCA430280704770B5024600240023C8
:100F70000025002040F66A16B14200D100BFC1F33F
:100F8000421501F01F03012606FA03F3012D02D1D9
:100F90009689334006E0022D02D1168A334001E0E3
:100FA000968A33400C12012606FA04F4168834405F
:100FB00013B10CB1012000E0002070BD10B500227B
:100FC000002340F66A14A14200D100BF0A12012496
:100FD0009440A3B2DC43048010BD000000380140FF
:100FE0000044004000480040004C004000500040D9
:100FF000F148006820B1F0480068401EEE490860E2
:101000007047ED49086000BFEB4909680029FBD132
:10101000704701B502E00098401E0090009800283B
:10102000F9D108BD00BFE549098801F04001002958
:10103000F9D0E249091D0880704710B50020FFF77C
:1010400010FB0020FFF7FEFAFFF766FA4FF480303E
:10105000FFF784FA0020FFF712FB0020FFF721FBC7
:101060000020FFF715FB0020FFF736FB4FF480113F
:101070000811FFF7DBFA0120FFF7E4FA00BF39207F
:10108000FFF78FFA0028FAD00220FFF7EAFA00BF34
:10109000FFF7F0FA0828FBD110BD10B540F225513A
:1010A000C648FFF761FF012816D1C448FFF7DCFEF0
:1010B000C349C44A127821F81200C2480078401C83
:1010C000C0490870C0480078401CBF49087040F211
:1010D0002551BA48FFF772FF10BDBC48806940F047
:1010E0000400BA498861BA48006840F00400B84971
:1010F00008600846006820F00B000860704700B5E3
:101100008BB001211C20FFF782FB01210846FFF76D
:101110007EFB4FF44070ADF8280010208DF82B00B6
:1011200003208DF82A000AA9AA48FFF7A7F8802013
:10113000ADF8280002208DF82A0018208DF82B0029
:101140000AA9A348FFF79AF84020ADF8280002202A
:101150008DF82A0018208DF82B000AA99C48FFF76B
:101160008DF82020ADF8280002208DF82A001820E4
:101170008DF82B000AA99648FFF780F81020ADF8EB
:10118000280003208DF82A0010208DF82B000AA9D2
:101190008F48FFF773F8012144F20100FFF737FB96
:1011A0000220ADF8280000208DF82B0003208DF8D8
:1011B0002A000AA98648FFF761F84FF40070ADF8DD
:1011C000240003208DF8260018208DF8270009A997
:1011D0007F48FFF753F84FF48060ADF824000420F7
:1011E0008DF8270003208DF8260009A97848FFF71D
:1011F00045F84FF4165005900020ADF81800ADF8F2
:101200001A00ADF81C00ADF820000C20ADF81E004F
:1012100005A96A48FFF72BFD68480C30008840F0AC
:10122000080066490C3108800846008840F0040038
:1012300008800846008840F020000880252000F043
:101240001F02012191404209920002F1E022C2F8FE
:10125000001100BF01215948FFF795FD0121080346
:10126000FFF7D5FA0020ADF800004FF48270ADF81A
:1012700002004FF40060ADF804000020ADF8060055
:10128000ADF808001820ADF80C000020ADF80E00F5
:101290004FF40070ADF80A0069464F48FFF744FB71
:1012A00001214D48FFF7E5FB0BB000BDFFF7C5FE80
:1012B000FFF725FFFFF711FF48480068484AB0FBD9
:1012C000F2F1481EB0F1807F00D31BE0481E4FF0C2
:1012D000E022506150170F22002807DA13071D0E75
:1012E000404B00F00F04241F1D5503E013071C0E94
:1012F0003D4B1C5400BF00204FF0E02290610720BE
:10130000106100BF10213248FFF765F840213048D6
:10131000FFF761F800203549088000BF4AE010213E
:101320002B48FFF75AF83248FFF76BFE0A20FFF709
:1013300068FE2E4801882848FFF7CCFB00BF8021BB
:101340002548FFF71AFC0128F9D001212248FFF7B0
:1013500014FC01282ED12048FFF7BEFB2549234A63
:10136000128821F812000A20FFF74BFE10211848BE
:10137000FFF731F81F481D49098810F811000002D5
:101380001C491A4A128831F8121000EB212081B250
:101390001948164A128820F812101648134A128863
:1013A00030F812100548FFF75BFD10480088401C1C
:1013B0000E490880B3E700001C00002000380140FF
:1013C000D001002022000020240000200010024054
:1013D0000008014000100140003001402C000020B6
:1013E000400D030018ED00E000E400E016000020CE
:1013F000A086010040000020080100200948804725
:1014000009480047FEE7FEE7FEE7FEE7FEE7FEE7E6
:10141000FEE7FEE7FEE7FEE704480549054A064BFE
:1014200070470000F7140008210100083004002074
:10143000300A002030060020300600200CB50020C5
:10144000019000906348006840F480306149086072
:1014500000BF6048006800F4003000900198401C14
:101460000190009818B90198B0F5A06FF1D15948D2
:10147000006800F4003010B10120009001E000206D
:1014800000900098012831D1524840685149486085
:10149000084640684860084640684860084640681A
:1014A00020F47C1048600846406840F4981048607A
:1014B0000846006840F08070086000BF454800683A
:1014C00000F000700028F9D04248406820F0030086
:1014D000404948600846406840F00200486000BF4C
:1014E0003C48406800F00C000828F9D10CBD10B54C
:1014F000FFF7A4FF10BD10B53648006840F00100AA
:10150000344908600846406833490840314948601A
:1015100008460068314908402E49086008460068BE
:1015200020F4802008600846406820F4FE004860EF
:101530004FF41F0088600020C862FFF7D8FF4FF00B
:1015400000602749086010BD30B50021002000224E
:101550000023204C646804F00C0121B1042906D05A
:10156000082925D107E01F4C1F4D2C6024E01D4C9D
:101570001D4D2C6020E0174C646804F47010154C6D
:10158000646804F48032022404EB904022B9174CC2
:101590004443154D2C600AE00E4CE46A04F00F043D
:1015A000631C104CB4FBF3F444430F4D2C6003E078
:1015B0000C4C0D4D2C6000BF00BF064C6468C4F39A
:1015C00003140B4D295D084C2468CC40064D2C605B
:1015D00030BD0000001002400000FFF8FFFFF6FEE3
:1015E00008ED00E000127A002C00002000093D0008
:1015F00030000020704770477047754600F028F8AB
:10160000AE4605006946534620F00700854618B0EF
:1016100020B5FFF701FFBDE820404FF000064FF076
:1016200000074FF000084FF0000B21F00701AC4617
:10163000ACE8C009ACE8C009ACE8C009ACE8C00936
:101640008D4670470446AFF300802046FEF7AFFD9D
:1016500000487047D003002001491820ABBEFEE7C8
:1016600026000200704700008816000800000020D5
:10167000400000005C010008C8160008400000207F
:10168000F0090000780100080000000001020304D6
:10169000010203040607080902040608000000000E
:1016A000000000000000000000000000000000003A
:1016B0000000000000366E01000000000000000085
:0816C0000102030406070809FA
:04000005080013FDDF
:00000001FF
