:020000040800F2
:10000000681E0020753400087D3400087F34000825
:1000100081340008833400088534000800000000A3
:10002000000000000000000000000000873400080D
:1000300089340008000000008B3400080510000817
:100040008F3400088F3400088F3400088F34000884
:100050008F3400088F3400088F3400088F34000874
:100060008F3400088F3400088F3400088F34000864
:100070008F3400088F3400088F3400088F34000854
:100080008F3400088F3400088F340008000000000F
:100090000000000000000000000000008F34000895
:1000A0008F3400088F3400088F3400088F34000824
:1000B0008F3400088F3400088F3400088F34000814
:1000C0008F3400088F3400088F3400088F34000804
:1000D0008F340008931100088F3400088F34000813
:1000E0008F3400088F3400088F34000800000000AF
:1000F0000000000000000000000000000000000000
:1001000000000000000000000000000000000000EF
:1001100000000000000000008F3400088F34000849
:1001200000F002F800F044F80AA090E8000C8244C5
:100130008344AAF10107DA4501D100F039F8AFF2A2
:10014000090EBAE80F0013F0010F18BFFB1A43F0B5
:10015000010318474C4300006C430000103A24BFD1
:1001600078C878C1FAD8520724BF30C830C144BF1C
:1001700004680C607047000000230024002500265E
:10018000103A28BF78C1FBD8520728BF30C148BFFA
:100190000B607047002070471FB59DE8030003F017
:1001A00045FF03F027FC1FBD10B503F08CFC10BD0C
:1001B00003F016FD1146FFF7EFFF01F0F0F803F032
:1001C00005FF03B4FFF7F0FF03BC04F0A1F8000043
:1001D00010B50446CC48844208D10121042000F027
:1001E0003AFB0021042000F036FB46E0C748844279
:1001F00008D10121082000F02EFB0021082000F08A
:100200002AFB3AE0C248844208D10121102000F0C4
:1002100022FB0021102000F01EFB2EE0BD4884428E
:1002200008D10121202000F016FB0021202000F041
:1002300012FB22E0B848844208D10121402000F09E
:100240000AFB0021402000F006FB16E0B348844280
:1002500008D10121802000F0FEFA0021802000F06A
:10026000FAFA0AE0AE48844207D10121801500F075
:10027000F2FA0021A01500F0EEFA10BD10B5012130
:10028000084600F0E8FA0021012000F0E4FA10BD71
:100290002DE9F0410246002500260020002300241D
:1002A000002791F803C00CF00F0591F803C00CF083
:1002B000100CBCF1000F03D091F802C04CEA050508
:1002C00091F800C0BCF1000F31D0146800202BE081
:1002D0004FF0010C0CFA00F3B1F800C00CEA030671
:1002E0009E4220D183004FF00F0C0CFA03F7BC4361
:1002F00005FA03FC4CEA040491F803C0BCF1280F92
:1003000006D14FF0010C0CFA00FCC2F814C00AE050
:1003100091F803C0BCF1480F05D14FF0010C0CFA65
:1003200000FCC2F810C0401C0828D1D31460B1F8FA
:1003300000C0BCF1FF0F34DD546800202EE000F156
:10034000080C4FF0010808FA0CF3B1F800C00CEAF1
:1003500003069E4221D183004FF00F0C0CFA03F7E5
:10036000BC4305FA03FC4CEA040491F803C0BCF159
:10037000280F05D100F1080C08FA0CF8C2F8148017
:1003800091F803C0BCF1480F07D100F1080C4FF001
:10039000010808FA0CF8C2F81080401C0828CED3D7
:1003A0005460BDE8F0814FF6FF7101800221817039
:1003B0000421C17070470246002093680B400BB1C6
:1003C000012000E0002070470146886880B2704735
:1003D00002460020D3680B400BB1012000E0002052
:1003E00070470146C86880B270470161704741613B
:1003F00070470AB1016100E041617047C160704718
:100400004FF480320A43826181618261826982692C
:10041000704702460020434B18684FF6807318401F
:1004200040EA021008433F4B186070473E49C861DC
:100430007047F0B50A46002300240021002500F093
:100440000046B6F1004F02D1364EF16901E0354E5B
:100450007168C0F3034583B200F44016B6F5401F3F
:1004600008D121F070612F4E766826F070662D4F0E
:100470007E6012E000F48016B6F5801F06D10326D8
:1004800006FA05F4A14341F0706106E0460D36011D
:1004900003FA06F6B14341F0706122B1460D360110
:1004A00003FA06F6314300F00046B6F1004F02D1E0
:1004B0001C4EF16101E01B4E7160F0BD30B50022B1
:1004C0008B071C0F0F2303FA04F2164B08338C1012
:1004D00053F824309343134C08348D1044F82530DE
:1004E00023468C1053F824308C07240F00FA04F4B0
:1004F00023430C4C08348D1044F8253030BD0A4994
:10050000DC3108607047000000080140000C014029
:10051000001001400014014000180140001C01407F
:10052000002001400000014000002042E648006831
:1005300040F00100E449086008464068E34908408B
:10054000E149486008460068E1490840DE49086022
:100550000846006820F4802008600846406820F4BF
:10056000FE0048604FF41F0088600020C86270479A
:10057000D549096821F48031D34A116011460968D0
:1005800021F480211160B0F5803F03D0B0F5802FB9
:100590000ED106E0CC49096841F48031CA4A1160A5
:1005A00007E0C949096841F4A021C74A116000E089
:1005B00000BF00BF704710B5014600220023002095
:1005C0004A11012A02D1C04C236806E0022A02D156
:1005D000BD4C236A01E0BC4C636A01F01F02012498
:1005E00094401C400CB1012000E0002010BD38B543
:1005F000002000900024002500BF3120FFF7DBFF22
:1006000005460098401C00900098B0F5A06F01D0FE
:10061000002DF2D03120FFF7CEFF08B1012400E019
:100620000024204638BD01460020A74A106820F06B
:10063000F80040EAC10010607047A64908607047A2
:1006400002460020A04B586820F4741042EA0103CF
:1006500018439D4B586070479E4908667047024694
:100660000020994BD86A9C4B184042EA010318437A
:10067000954BD862704701460020934A506820F09D
:1006800003000843506070478F48406800F00C003A
:100690007047014600208C4A506820F0F000084363
:1006A0005060704701460020874A506820F4E0609F
:1006B00008435060704701460020834A506820F488
:1006C000605040EAC1005060704729B17E4A527ABA
:1006D00002437D4B5A7204E07B4A527A82437A4B42
:1006E0005A7270477B49D831086070470146002034
:1006F000754A506820F4404008435060704700211C
:10070000714A20321170704A82F82010012802D0FC
:1007100004280AD104E001216B4A2032117005E05F
:100720000521694A2032117000E000BF00BF704708
:100730006A49086070476449096A0143624A116264
:100740007047664944390860704770B5002100233E
:100750000024002200255C4E766806F00C0121B1D1
:10076000042905D0082921D105E05D4E066020E06E
:100770005B4E06601DE0544E766806F47013524ED0
:10078000766806F48034022606EB93431CB9554E76
:100790005E43066009E04C4EF66A06F00F06751CD3
:1007A0004F4EB6FBF5F65E43066002E04C4E066027
:1007B00000BF00BF444E766806F0F00109094A4EBA
:1007C000725C0668D64046603F4E766806F4E0618B
:1007D000090A454E725C4668D64086603A4E766895
:1007E00006F46051C90A404E725C4668D640C66045
:1007F000354E766806F44041890B3C4E725CC66803
:10080000B6FBF2F6066170BD29B12F4A5269024368
:100810002D4B5A6104E02C4A526982432A4B5A619B
:10082000704729B1284A92690243274B9A6104E034
:10083000254A92698243244B9A61704729B1224A22
:10084000D2690243204BDA6104E01F4AD269824335
:100850001D4BDA61704729B11B4AD26802431A4B1B
:10086000DA6004E0184AD2688243174BDA607047B6
:1008700029B1154A12690243134B1A6104E0124A66
:1008800012698243104B1A6170471449403908605D
:1008900070471049C86470470B49C87170470A48CF
:1008A000406A40F080700849486270470146002065
:1008B000054A92680A400AB1012000E00020704712
:1008C0000149887270470000001002400000FFF8E4
:1008D000FFFFF6FE00004242F0FFFEFF80044242AE
:1008E00000127A0000093D000000002010000020E6
:1008F00010B50446BE48844208D101218014FFF798
:10090000AAFF0021A014FFF7A6FF16E0B948844211
:1009100008D101210014FFF7ABFF00212014FFF7DD
:10092000A7FF0AE0B448844207D10121C013FFF7B2
:100930009FFF0021E013FFF79BFF10BD10B50022C1
:10094000028802F441520B884C8823438C8823434D
:10095000CC8823430C8923434C8923438C8923432C
:10096000CC8923431A430280838B4FF2FF742340C8
:1009700083830B8A038210BD2DE9F04F85B00546B5
:100980000C464FF0000902274FF000084FF0010B12
:100990000026B246A88B4FF240010840A8830220EF
:1009A0002884B5F81C90A068022801D100BF38E067
:1009B000A08810B94FF0010B01E04FF0020B8D48F9
:1009C000854200D100E000BF6846FFF7BEFEDDF8BB
:1009D00000A0E088B0F5007F0AD14FEA1A2000EBB2
:1009E00080004000A168B0FBF1F0401D86B20BE032
:1009F0004FEA4B10BAFBF0F000EB80004000A1681A
:100A0000B0FBF1F0401D86B20A20B6FBF0F606F00E
:100A10000108A6EB0800C0F34F074FF6FF7000EA8D
:100A20000828022F01DBFF2F02DD02274FF000080C
:100A3000E08840EA080038432884A088A189084358
:100A4000618808432188084340F4006040EA0909AE
:100A5000A5F81C9005B0BDE8F08F00210180418011
:100A60008180C180018141818181C1810721018211
:100A700070470021018041808180C1800221816016
:100A800000218181704721B1028842F0400202803A
:100A900004E002884FF6BF731A400280704721B10C
:100AA000828B42F48062828304E0828B4FF6FF33B4
:100AB0001A408283704730B5002400230C110125B1
:100AC000A540ABB21AB185881D43858002E08588B8
:100AD0009D43858030BD1AB183880B43838002E03B
:100AE00083888B4383807047818170470146888962
:100AF00070474FF6FF62914204D0028842F4807240
:100B0000028004E002884FF6FF631A4002807047BB
:100B100021B1828842F00402828004E082884FF68C
:100B2000FB731A408280704702884FF2FF731A40AD
:100B3000028002880A4302807047018841F4805194
:100B40000180704721B1028842F40052028004E023
:100B500002884DF6FF731A4002807047024600205B
:100B6000012901D0108B00E0908A70470146088A65
:100B70007047B1F5804F04D1028842F48042028070
:100B800004E002884BF6FF731A4002807047024669
:100B9000002013890B400BB1012000E000207047BA
:100BA000CA4302817047F0B50246002000240023AA
:100BB000002501F00F070126BE40B4B20B1101263B
:100BC0009E40B3B2968806EA03051689264016B100
:100BD0000DB1012000E00020F0BD10B5002201F0B1
:100BE0000F040123A3409AB2D343038110BD000038
:100BF0000030014000380040003C004010B5044681
:100C0000FB48844209D101218803FFF724FE00211B
:100C10004FF48040FFF71FFE32E0F648844209D1CE
:100C200001214804FFF724FE00214FF40030FFF7B4
:100C30001FFE25E0F048844209D101218804FFF716
:100C400017FE00214FF48020FFF712FE18E0EB485A
:100C5000844209D10121C804FFF70AFE00214FF4A4
:100C60000020FFF705FE0BE0E548844208D1012192
:100C70000805FFF7FDFD00214FF48010FFF7F8FD98
:100C800010BD2DE9F04786B005460E460024A24669
:100C900000BFA1460027B08900B100BF2F462C8AB3
:100CA0004CF6FF700440F08804432C82AC894EF669
:100CB000F3100440B0883189084371890843044324
:100CC000AC81AC8A4FF6FF400440B0890443AC824B
:100CD00001A8FFF73AFDC648874202D1DDF810A00F
:100CE00001E0DDF80CA0A88900F4004040B10AEB57
:100CF000CA0000EB0A1031684900B0FBF1F807E0C8
:100D00000AEBCA0000EB0A1031688900B0FBF1F869
:100D10006420B8FBF0F004012009642101FB108974
:100D2000A88900F4004040B1322000EBC900B0FBBC
:100D3000F1F000F00700044308E0322000EB091056
:100D40006421B0FBF1F000F00F0004432C8106B0E9
:100D5000BDE8F0874FF41651016000218180C18009
:100D600001810C21418100218181704710B502462B
:100D70000020108A4FF2FF0318400B884C88234351
:100D80008C882343CC8823431843108210BD002154
:100D9000018041808180C180704721B1828942F405
:100DA0000052828104E082894DF6FF731A408281ED
:100DB0007047F0B50346002400260025002040F6C9
:100DC0006A17B94200D100BF1846C1F3421401F0BE
:100DD0001F06012707FA06F5012C01D10C3004E0AB
:100DE000022C01D1103000E014301AB107682F43F3
:100DF000076002E00768AF430760F0BD1AB1838A5D
:100E00000B43838202E0838A8B4383827047028A8A
:100E10004FF6F0731A400282028A0A430282704738
:100E200082894FF2FF731A40828182890A4382814C
:100E3000704721B1828942F00202828104E08289F6
:100E40004FF6FD731A4082817047028A4FF6DF73B6
:100E50001A400282028A0A430282704721B1028A42
:100E600042F48042028204E0028A4BF6FF731A4089
:100E700002827047C1F30802828070470146888869
:100E8000C0F308007047818941F0010181817047FA
:100E9000028BD2B20283028B42EA012202837047A4
:100EA000028B02F47F420283028B0A430283704763
:100EB00021B1828A42F02002828204E0828A4FF6C7
:100EC000DF731A408282704721B1828A42F0100299
:100ED000828204E0828A4FF6EF731A408282704762
:100EE00021B1828A42F00802828204E0828A4FF6AF
:100EF000F7731A408282704721B1828942F400421E
:100F0000828103E08289C2F30E028281704721B19F
:100F1000828A42F40062828204E0828A4FF2FF7386
:100F20001A4082827047828A4FF6FB731A4082828F
:100F3000828A0A438282704721B1828A42F0020289
:100F4000828204E0828A4FF6FD731A4082827047E3
:100F500002460020B1F5007F00D100BF13880B408E
:100F60000BB1012000E00020704701F40072B2F5DF
:100F7000007F00D100BFCA430280704770B50246AF
:100F8000002400230025002040F66A16B14200D15B
:100F900000BFC1F3421501F01F03012606FA03F357
:100FA000012D02D19689334006E0022D02D1168A26
:100FB000334001E0968A33400C12012606FA04F40D
:100FC0001688344013B10CB1012000E0002070BD40
:100FD00010B50022002340F66A14A14200D100BFE0
:100FE0000A1201249440A3B2DC43048010BD000027
:100FF000003801400044004000480040004C0040E0
:1010000000500040FC48006820B1FB480068401ECA
:10101000F94908607047F849086000BFF649096857
:101020000029FBD1704701B502E00098401E0090F6
:1010300000980028F9D108BD00BFF049098801F0E7
:1010400040010029F9D0ED49091D0880704770471B
:1010500010B5EB480068EB490968884231D2EA488C
:101060000078401CE8490870002419E000BF04EB38
:101070004400C0EB4410E54901EB8000E4490860FE
:10108000022001F0ABF800BFE2480088002806DD2E
:1010900002F01BF9DF480188DF4800F045FC641CC2
:1010A000282CE3D3D8480078322804DB0020D64926
:1010B000087001F0F0FFD3480068D8490844D049CF
:1010C000086010BD10B54FF4D271D34800F062FC37
:1010D000D049088008460088002829DD4FF40060C8
:1010E00000F027FFCC49898988420ED1012001F008
:1010F00075F8C848008800281ADD02F0E6F8C548EF
:101100000188C54800F010FC12E040F6060000F02F
:1011100010FFC149898988420AD102F06AF8BD48A6
:101120000088002804DDBB480188BB4800F0FCFBB8
:1011300010BD10B50020FFF79EFA0020FFF78CFAD3
:10114000FFF7F4F94FF48030FFF712FA0020FFF7B1
:10115000A0FA0020FFF7AFFA0020FFF7A3FA002063
:10116000FFF7C4FA4FF480110811FFF769FA012064
:10117000FFF772FA00BF3920FFF71DFA0028FAD0F6
:101180000220FFF778FA00BFFFF77EFA0828FBD1AC
:1011900010BD10B540F225519848FFF7EFFE012829
:1011A00015D19648FFF76AFE9D499E4A12788854E9
:1011B0009C480078401C9B4908709B480078401C64
:1011C0009949087040F225518C48FFF701FF10BD86
:1011D0009648806940F0040094498861944800680A
:1011E00040F00400924908600846006820F00B00B7
:1011F0000860704700B58BB001211C20FFF711FB80
:1012000001210846FFF70DFB4FF44070ADF82800B0
:1012100010208DF82B0003208DF82A000AA985489C
:10122000FFF736F88020ADF8280002208DF82A005C
:1012300018208DF82B000AA97D48FFF729F84020D7
:10124000ADF8280002208DF82A0018208DF82B0018
:101250000AA97748FFF71CF82020ADF828000220E3
:101260008DF82A0018208DF82B000AA97048FFF786
:101270000FF81020ADF8280003208DF82A00102068
:101280008DF82B000AA96A48FFF702F8012144F201
:101290000100FFF7C6FA0220ADF8280000208DF803
:1012A0002B0003208DF82A000AA96148FEF7F0FF01
:1012B0004FF40070ADF8240003208DF826001820AC
:1012C0008DF8270009A95A48FEF7E2FF4FF4806025
:1012D000ADF8240004208DF8270003208DF82600A7
:1012E00009A95348FEF7D4FF4FF41650059000208B
:1012F000ADF81800ADF81A00ADF81C00ADF82000EC
:101300000C20ADF81E0005A93C48FFF7BAFC3B488D
:101310000C30008840F0080038490C31088008463D
:10132000008840F0040008800846008840F0200053
:101330000880252000F01F020121914042099200FF
:1013400002F1E022C2F8001100BF01212B48FFF793
:1013500024FD01210803FFF764FA0020ADF8000026
:101360004FF48270ADF802000020ADF80400ADF833
:101370000600ADF808001820ADF80C000020ADF80C
:101380000E004FF40070ADF80A0069462A48FFF7D6
:10139000D5FA01212848FFF776FB0BB000BDFFF717
:1013A000C8FEFFF727FFFFF713FF24480068244A11
:1013B000B0FBF2F1481EB0F1807F00D31BE0481E65
:1013C0004FF0E022506150170F22002807DA130770
:1013D0001D0E1C4B00F00F04241F1D5503E01307C6
:1013E0001C0E194B1C5400BF00204FF0E0229061EE
:1013F0000720106100BF62E020000020003801409B
:10140000340000203C0000203000002010040020A8
:10141000640000205C0000206802002020A107007A
:101420006801002026000020280000200010024053
:101430000008014000100140003001408000002001
:10144000400D030018ED00E000E400E010211C480E
:10145000FEF7CDFF55211B48FFF746FB00BF80215B
:101460001848FFF794FB0128F9D001211548FFF730
:101470008EFB012823D11348FFF738FB1249134A8A
:10148000126821F812000A20FFF7C5FD10210C4850
:10149000FEF7ABFF0E48FFF7BEFD0D48FFF7BBFDA3
:1014A0000B48FFF7B8FD0A48FFF7B5FD0848FFF7FE
:1014B000B2FD0748FFF7AFFD0548FFF7ACFDC5E7F4
:1014C0000008014000300140A0000020180000206A
:1014D000A086010010B54EF6030000F047FE10BDD7
:1014E00070B50446012520885C281AD003DC38B189
:1014F0005B2848D108E05E2826D05F2843D130E041
:1015000000BF5B20208000BF1A222BA1204600F0E4
:1015100070FB08B9002070BD00BF00BF5C202080B8
:1015200000BF0A21204600F0F9FB08B90020F2E7CD
:1015300000BF282204F1240104F12E0002F0AAF9D0
:1015400000BF5E20208000BF062222A1204600F0BE
:1015500050FB08B90020DEE700BF00BF5F202080FD
:1015600000BF04F12E0002F029F90646324604F1CC
:101570002E01204600F03DFB08B90020CBE700BF5C
:101580001020164908700025002020800220C2E7A4
:1015900010B51348006800F11C041048007800F0F2
:1015A000400028B10A2204F12401204600F040FC4A
:1015B0002046FFF795FF10BD48656C6C6F2E2057D5
:1015C00068617420697320796F7572206E616D6532
:1015D0003F0A000048656C6C6F200000600000202E
:1015E0006400002010B5044600BF0221FE48FFF74A
:1015F000CEFA0028F9D02146FB48FFF775FA00BF64
:101600000121F948FFF7C3FA0028F9D0F648FFF79F
:101610006DFAC0B210BD70B505460C461021F348F6
:10162000FEF7E5FE04F01F0141EA0500FFF7DAFFCF
:1016300004F0800010B1FF20FFF7D4FFFF20FFF778
:10164000D1FF06461021E948FEF7CFFE304670BDB7
:1016500070B504460D4616461021E448FEF7C7FE55
:1016600005F01F0141EA0400FFF7BCFF3046FFF719
:10167000B9FF00BF8021DC48FFF789FA0028F9D1C3
:101680001021DA48FEF7B1FE70BD10B51021D74821
:10169000FEF7ADFEFF20FFF7A5FF1021D348FEF7B0
:1016A000A4FE0020D2490870012000F0BBF910BD53
:1016B00070B5054605F01F001B2811DAC5F341146B
:1016C000CB48007884420BD003221F21A020FFF7D3
:1016D000BFFF22461F218020FFF7BAFFC4480470D5
:1016E00070BD10B504462046FFF7E2FF21460020FA
:1016F000FFF791FF10BD70B504462046FFF7D8FFF5
:1017000021460020FFF787FF0546601CC1B200207C
:10171000FFF781FF45EA002070BD70B504460D4615
:101720002046FFF7C5FF2A4621464020FFF790FFDD
:1017300070BD70B504460D462046FFF7B9FFEAB20A
:1017400021464020FFF784FF2A12601CC1B24020CE
:10175000FFF77EFF70BD70B504460D462046FFF7CB
:10176000A7FF2A462146A020FFF772FF70BD70B583
:1017700004460D462046FFF79BFF2A46214680205F
:10178000FFF766FF70BD70B504460D4610219748FF
:10179000FEF72DFE3A20FFF725FF04E0FF20FFF7BC
:1017A00021FF04F8010B2800A5F101018DB2F5D14C
:1017B00010218E48FEF719FE70BD70B504460D4627
:1017C00010218A48FEF713FE7A20FFF70BFF03E093
:1017D00014F8010BFFF706FF2800A5F101018DB2F7
:1017E000F6D110218148FEF700FE70BD10B5044609
:1017F0002146D420FFF791FF0121D220FFF7B7FF48
:1018000000BFEA20FFF76DFF00F001000028F8D1CB
:101810000121D220FFF79FFFD820FFF76CFF10BDFA
:1018200070B504460D462146D420FFF776FF2946C1
:10183000D620FFF77EFF00BFEA20FFF752FF00F03F
:1018400001000028F8D170BD10B50446102167488A
:10185000FEF7CBFD08216548FEF7C7FD0821634868
:10186000FEF7C5FD08216148FEF7BFFDFFF70DFF3C
:1018700000210820FFF75DFF0820FFF73CFF002153
:101880000C20FFF756FF41F6FF110A20FFF751FF2A
:101890000020584908800D21C020FFF73EFF00219D
:1018A000C120FFF73AFF3321C220FFF736FF40F295
:1018B000DC51CA20FFF73DFF1521C420FFF72DFFA3
:1018C0001221C620FFF729FF0C21C720FFF725FFB3
:1018D0002178E420FFF721FF6178E520FFF71DFF65
:1018E000A178E220FFF719FFE178E320FFF715FF69
:1018F0002179E020FFF711FF6179E120FFF70DFF6B
:101900004FF480710020FFF78BFF4FF4807110209F
:10191000FFF786FF40F276411420FFF781FF042194
:101920001F20FFF724FF10BD70B505460C460DE0E3
:101930001C20FFF7D6FE00F0020038B180211F20E6
:10194000FFF715FF80211F20FFF705FF1F20FFF77E
:10195000C8FE00F008000028EAD14FF4D051022060
:10196000FFF7E7FE012124A0FFF727FF21462846C5
:10197000FFF723FF4FF4D0510420FFF7DAFE04F500
:10198000D05081B20620FFF7D4FE08211F20FFF7B8
:10199000EEFE70BD2DE9FC4107460C4600253920BE
:1019A000FFF79FFEF8B1134801880020FFF7C1FE42
:1019B00002211048FFF7E7FE022101A8FFF7E3FE2E
:1019C00002216846FFF7DFFEBDF8000000F080004E
:1019D000B0B1BDF80400001F85B2A54200DD254668
:1019E000294638460AE018E000300140000801406E
:1019F000380000203A00002000000000FFF7C3FE7E
:101A000007480088401EC0F30C0631460C20FFF743
:101A100090FE40211E20FFF7AAFE2846BDE8FC816B
:101A20003A00002000EB4002C2EBC012094B1B68D9
:101A300003EBC20100BF074A12689142FBD870470E
:101A4000044A1268111800BF024A12689142FBD87A
:101A5000704700003C0000200160828070472DE943
:101A6000F04104460F4616461D462888A188884244
:101A700014DA2A883168206801F0BFFE29882068BE
:101A800008442060A0882988401AA08029883068EE
:101A90000844306000202880BDE8F0812888A188B3
:101AA000884212D12A883168206801F0A6FE298870
:101AB0002068084420600020A080298830680844FD
:101AC0003060002028800120E6E7A2883168206885
:101AD00001F093FEA1882068084420602888A1882E
:101AE000401A2880A1883068084430600020A08017
:101AF0000120D1E730B5044613E01068057820686E
:101B000005701068401C10602068401C2060188818
:101B1000401E1880A088401EA0808D4201D1022066
:101B200030BDA088002802DD18880028E5DC188870
:101B300008B90020F4E70BE0106805781888401E0B
:101B400018801068401C10608D4201D10320E7E727
:101B500018880028F0DC0120E2E710B5044694F86C
:101B60002000062804D1BC48007800F00400A8B189
:101B7000208ABA490968498A884206DDB74A12684C
:101B8000518A606801F04DFA03E0218A606801F033
:101B900048FA062084F82000012010BD0020FCE750
:101BA000014691F82000062821D1AB48007800F0CA
:101BB0000100E0B1088AA94A1268528A90420CDDFD
:101BC000088AA64A1268528A801A0882A34A48687C
:101BD0001268528A1044486005E00A8A4868104436
:101BE000486000200882012081F820007047002012
:101BF000FCE72DE9F04104460E46154601276088B2
:101C000010B1CF2826D110E02DB900BF0020608090
:101C10000120BDE8F08166602582002084F8200064
:101C200012E000BFCF20608000BF2046FFF7B8FF62
:101C300080462046FFF791FF08EA0008B8F1000F40
:101C400001D10020E5E700BF208A0028E9DC002060
:101C500084F820000027002060800220D9E72DE9C9
:101C6000F04104460D4616460127608810B1EE2863
:101C700031D11BE02DB900BF002060800120BDE8FC
:101C8000F0813046A84720827548006860600020D7
:101C900084F8200000BF7048007800F0040008B10C
:101CA0003046A84700BFEE20608000BF2046FFF707
:101CB00077FF80462046FFF750FF08EA0008B8F19A
:101CC000000F01D10020DAE700BF208A0028E2DC03
:101CD000002084F820000027002060800220CEE74A
:101CE00001468A8B088B101A80B270470146488AD9
:101CF000002801DD0120704791F82000022804D15E
:101D0000032081F820000020F5E75348007800F018
:101D1000020008B10120EEE70020ECE770B50446B0
:101D20000D460126608820B1A0F21B10002835D195
:101D30000EE0A08B82B204F11400E168FFF78CFE84
:101D400000BF608AA0B900BF40F21B10608000BFD6
:101D50002046FFF7CBFF08B9002070BD00BF02206E
:101D600084F820003E480068A0603E4800886082F9
:101D700004F1120304F108022946981CFFF7BAFE89
:101D800000F002000028DCD02046FFF7A9FF28B9A8
:101D9000002084F8200000BF6080DEE700260020DD
:101DA00060800220D9E770B504460125608818B12B
:101DB000B0F59B7F37D10EE0A08B82B204F1140006
:101DC000E168FFF749FE00BF608AB8B900BF4FF471
:101DD0009B70608000BF2046FFF788FF08B9002095
:101DE00070BD00BF20A001F041FC022084F820005B
:101DF0001B480068A0601B4800886082A08B81B2ED
:101E000004F1120304F10802981CFFF728FE0128D0
:101E1000DAD12046FFF764FF28B9002084F82000BB
:101E200000BF6080DCE70025002060800220D7E74B
:101E300070B504460E461546002084F820006082E6
:101E4000E660E561AAB2314604F11400FFF704FE32
:101E500000202080608070BD6000002064000020B1
:101E6000540000205C00002057616974656420669E
:101E70006F72206E6577646174610A00FB490880A7
:101E80007047C2780A44FA4BDA70827802EB21225A
:101E90009A7042785A7002781A701A469278B2EBA9
:101EA000212F0ADA1A465278521C5A701A46527872
:101EB0001AB91A461278521C1A70ED4AD278CBB26F
:101EC0009A4212DAEA4A9278521CE94B9A701A4600
:101ED000927852B91A465278521C5A701A46527861
:101EE0001AB91A461278521C1A707047F0B50B4690
:101EF000144619461E19751E0BE04E780F7806EB36
:101F00000726B2B28618B0B2904201DA461CB0B2CF
:101F1000891CA942F1D3A9420AD10E78002707EB08
:101F20000626B2B28618B0B2904201DA461CB0B2B0
:101F3000F0BD0146080240EA212080B2704770B52A
:101F400004460D462A4621460020FFF7CFFF0646ED
:101F5000FFF7EFFF70BD10B51422C6490020FFF750
:101F6000C5FF044614B94FF6FF7010BD2046FFF7B9
:101F7000E0FFFAE770B50446BE480E38417C007CAD
:101F800001EB0020143885B2281986B20822B9491D
:101F90000C313046FFF7AAFF06462A46B5491431F0
:101FA0003046FFF7A3FF064616B94FF6FF7070BD27
:101FB0003046FFF7BEFFFAE710B50620FFF7DAFF5D
:101FC00010BD10B51120FFF7D5FF10BD0020AA49A4
:101FD00008700AE00020A949A74A127821F81200E7
:101FE000A5480078401CA4490870A3480078282818
:101FF000F0DB0020A04908700FE000209E4909781E
:1020000001EB4102C2EB41119D4A02EB810148768E
:1020100099480078401C984908709748007828280B
:10202000EBDB4FF4806097490880704730B5044679
:102030000D4600BF93480088401C9249088008461E
:102040000088B0F5FA4F02DB4FF480500880002082
:102050008949087017E08848007800EB4001C1EB1F
:102060004010874901EB8002507E38B185480088D6
:10207000FFF75FFF9188884200D1DBE77E48007858
:10208000401C7D4908707C4800782828E3DB00224A
:102090000020794908701AE07748007800EB400189
:1020A000C1EB4010764901EB8003587E08B91A460F
:1020B00011E0587E072805D11AB1987E917E88429A
:1020C00000DD1A466C480078401C6B4908706A486D
:1020D00000782828E0DB00BF0AB9002030BD0220CC
:1020E0005076694800781073674841785173817859
:1020F0009173C178D1734FF4B770508290820120F0
:1021000010820020D07601209076032010760020E7
:1021100090751020D0755B480088FFF70AFF90800B
:10212000D58000BF208810806088508000BF104696
:10213000D4E70021504A117012E050494E4A1278FB
:1021400031F81210814206D100214C4A4A4B1B78CB
:1021500022F81310704748490978491C464A117003
:10216000454909782829E8DB00BFF3E70021424A06
:10217000117010E04149404A127831F8121029B923
:102180003E493D4A127821F8120070473A490978D1
:10219000491C394A1170384909782829EADB00BFFF
:1021A000F3E710B504462146384800680830FFF7C9
:1021B00068FE2F4800783549096808722C48417834
:1021C0003248006841722A4881783048006881723C
:1021D0002748C1782D480068C17210BD70B505460A
:1021E0002A4804682348283029490860294908609A
:1021F000032D0ED1607E00F00F00032807D1208A46
:1022000028B9082024490870FFF7C2F9FEE300F05E
:1022100001BF022D7DD11C48C078401CC0B21A49B4
:10222000C87078B908468078401CC0B2887048B938
:1022300008464078401CC0B2487018B9084600787B
:10224000401C087000201549088015490880607EF0
:10225000072802D0607E052824D1A07E401CA076ED
:10226000A07E78287BD10020607678E0680000208E
:10227000700000207602002074000020301600203C
:10228000100400206E0000206A000020640000207E
:102290005400002058000020600000205C00002056
:1022A0005E000020607E002859D0208A00284BD094
:1022B000A17E481EA076002951D1E07E082808D0D2
:1022C000607E022802D0607E01280ED1E07E0528C3
:1022D0000BD1002060768020F7490870FFF758F98D
:1022E0001421F64880F82F10EEE3E07E042801DD8B
:1022F000042000E0E07E03218140A176E07E401CC6
:10230000E076EF48C08C401C81B2ED48C184607E0D
:1023100000E025E000F00F00092820D2DFE800F0FF
:102320001F05060B111F121F1300BFE20021E34817
:1023300080F82F10BFE20420DF490870FFF728F96A
:10234000F1E300BF00BFEFE3607E00F00F00032861
:1023500005D10820D8490870FFF71AF956E756E763
:10236000D7484088401CD6494880D448807B4528BF
:1023700008D008460088401C08800846C088401CD9
:10238000C88044E7CD48417C007C01EB0020CD496A
:102390000988884207DCC948417C007C01EB0020A9
:1023A000C849088000E032E7C448007D00F03F00E3
:1023B00010B9C248407D48B1C1480088401CC0499E
:1023C000088008468089401C888120E7BE48008834
:1023D000BE490988884205D1BB484088BB49498825
:1023E000884211D0B548C08BB7490988884205D1C9
:1023F000B248008CB4494988884205D0B04800886A
:10240000401CAF49088002E7FFF7A5FD4FF6FF71BA
:10241000884209D0AA480088401CA949088008467B
:10242000C089401CC881F2E6A448C07D062800D1BE
:1024300052E0A248C07D012809D0A1480088401C74
:102440009F4908800846008A401C0882DFE69C48B5
:10245000808A401C81B29A488182984890F8220074
:1024600008280BD09648408A401C95494882084667
:10247000008B401C81B292480183C8E600218F483E
:1024800080F82210808C4FF6F771884206DB8B486B
:10249000808C093081B28948818405E08748808C2E
:1024A000083081B28548818400BF8448418BC18354
:1024B000818B018400BF00BF834801887F4841832E
:1024C000814841887D48818300BF7D48C08A401C87
:1024D00081B27B48C182FDE37948808B401C81B288
:1024E00077488183FFF768FD4FF6FF7188420BD074
:1024F0007348408B401C724948830846008C401C3E
:1025000081B26F48018482E6714C17E0607EA0B111
:102510006A48808CA18888420FD16848408CE18845
:1025200088420AD16548408B2188884205D163489A
:10253000808B6188884200D1D9E174346548844237
:10254000E4D95E4890F82F0000F03F00022800D048
:1025500021E05A48808C6049088000205F4908705B
:102560000EE05F485D49097830F811005A49098842
:10257000884200D19AE059480078401C57490870B9
:10258000564800782828ECDB4D48408D401C81B22D
:102590004B48418500BF494890F82F0000F00400E7
:1025A00000B134E64648808C401C81B244488184A6
:1025B0001421424880F82F102820424908805021D9
:1025C0003E4880F82E1090F82900444908703B4896
:1025D00090F82D1080F8291040480178374880F88D
:1025E0002D1090F828003D490870344890F82C10C0
:1025F00080F8281039480178304880F82C1090F87D
:102600002700364908702D4890F82B1080F82710C5
:1026100032480178294880F82B1090F826002F497D
:102620000870264890F82A1080F826102B48017868
:10263000224880F82A1090F82D00401CC1B21F4893
:1026400080F82D10B1B990F82C00401CC1B21B4885
:1026500080F82C1071B990F82B00401CC1B21748BB
:1026600080F82B1031B990F82A00401CC1B21348F1
:1026700080F82A101148408C174908800F48818C37
:102680004184154801880D48818400BF418BC18376
:10269000818B018400BF00BF0B480188074841833C
:1026A000094841880548818300BFF4E300240020E5
:1026B0000A49087053E00000600000206802002012
:1026C000801600205C0000204000002074440008B8
:1026D00010040020BC1500207600002074000020AB
:1026E00030160020F948007800EB4001C1EB4010A3
:1026F000F74901EB8000407E48B9F448007800EBD0
:102700004001C1EB4010F24901EB80042BE0EF489F
:10271000007800EB4001C1EB4010ED4901EB800077
:10272000407E072816D164B1E848007800EB4001EC
:10273000C1EB4010E64901EB8000807EA17E88421B
:1027400008DDE248007800EB4001C1EB4010E049B1
:1027500001EB8004DD480078401CDC490870DB4850
:1027600000782828BEDB00BF34B9DA48008D401C51
:1027700081B2D84801854AE5D74804600320A07695
:1027800020760020A0750420E0750020E076D34874
:10279000808CA080D148408CE08000BFCF48408B27
:1027A0002080CE48808B608000BF01206076CC48BE
:1027B00000782073CA48417861738178A173C17829
:1027C000E17301202082C54890F82910E17290F849
:1027D0002810A17290F82710617290F826002072DC
:1027E0000120FFF7DEFCBD4890F82E0000F0F0005D
:1027F00050285ADD0020B54908704AE0B3480078F7
:102800003630B649085CB74908700846007800B908
:102810004AE0B4480078012805D1AC480078401C53
:10282000AA49087035E0AF480078022820D1A748AF
:1028300000783730A949085C042819D1A3480078EA
:102840003930095CA14800783830A44A105C41EA6C
:102850000020A549088008460088B0F5B77F02DD52
:102860004FF4B77001E0A04800886082A0821BE0AE
:102870009648007837309949085C00B914E09348CD
:10288000007837309549085C9049097808448F49A9
:102890000870924890F82E000521C1EB20108B495A
:1028A0000978B1EB800FA9DB00BF00BF10218B4876
:1028B00080F82F1000BF894890F82F0040F00201E7
:1028C000864880F82F10022180F83610042180F805
:1028D0003710012180F838106E2180F839102C2033
:1028E0008249088060217D4880F82E10F4E27A4801
:1028F000046000207E490870784890F82F0000F0AE
:10290000040030B10020607620200870FEF740FE01
:1029100080E3724890F82E00001180006B49087027
:10292000724800880978401A143870490880607E1F
:1029300000F00F00022806D1684890F82F0000F040
:102940003F00122822D069480088002805DC63482F
:1029500090F82F0000F00300C0B1604890F8260006
:10296000217A884211D15D4890F82710607A81421F
:102970000BD15A4890F82810A07A814205D15748C7
:1029800090F82910E07A814200D097E2534890F8FD
:102990002F0000F01000D0B3208AC0B3218A04F1C8
:1029A0000C00FFF76EFA4D4890F82A00514909785B
:1029B000884246D1494890F82B004E4949788842D0
:1029C0003FD1464890F82C004A498978884238D14E
:1029D000424890F82D004749C978884231D145488E
:1029E000007820734348417861738178A173C1787E
:1029F000E173E07EF0B9217EA27E891A48B2A17D02
:102A0000A0EBE10148B2A17D014401E083E118E0BF
:102A1000A175002801DA414248B2E17DA0EBA10195
:102A200048B2E17D0144E175E17DA27D01EBE20167
:102A3000217600BF01202E490870207EA07600205C
:102A40002082607E00F00F0009286ED2DFE800F0DF
:102A50006D0525D9FDFCFBFAF9002548007800F04A
:102A60000100C8B103206076402021490870002091
:102A700020821E480088002808DD0846007840F0C3
:102A80000200087019480088FFF78BFB00201A49E4
:102A90000880FEF77DFD3EE1BCE21548007800F0BD
:102AA000010090B10D4890F82F0000F03F0012286F
:102AB0000BD10A4890F82E0000F0F000502877DD86
:102AC00000200249087067E0FDE190E074000020FA
:102AD00010040020801600206400002068020020FE
:102AE0006A00002075000020760000205C000020B5
:102AF00060000020700000205E000020FE4800788A
:102B00003630FE49085CFE4908700846007800B976
:102B10004DE0FB480078012808D1F7480078401CB8
:102B2000F549087038E038E19CE0C5E1F4480078E8
:102B3000022820D1F04800783730F049085C04289A
:102B400019D1ED4800783930095CEB48007838300D
:102B5000EA4A105C41EA0020EA49088008460088F9
:102B6000B0F5B77F02DD4FF4B77001E0E5480088AB
:102B70006082A0821BE0E04800783730DF49085CC3
:102B800000B914E0DC4800783730DC49085CDA49E9
:102B900009780844D8490870D84890F82E000521D3
:102BA000C1EB2010D4490978B1EB800FA6DB00BF40
:102BB00003206076D14890F826002072CF4890F824
:102BC0002710617290F82810A17290F82910E17214
:102BD0000120FFF7E6FA4220CB490870002020824E
:102BE000CA490880CA490880FEF7D2FC93E0202039
:102BF000C5490870FEF7CCFC0020C6490968487634
:102C0000C9E4BE4890F82F0000F0010078B3607E60
:102C100000F0100058BB208A00B1FBE1BB490988D5
:102C2000491C88B2FFF7BDFAB748007840F01000A1
:102C3000B5490870B548008800280ADD08460078C4
:102C400004E0CCE02EE12EE10AE1D5E040F0020004
:102C50000870FEF79DFC012020820820607600208D
:102C6000E07600BF1121A54880F82F102BE1FFE787
:102C7000A24890F82F0000F02000B8B19F4890F8CB
:102C8000351090F8340041EA0020A349096808444F
:102C9000A1490860994890F8351090F8340041EA4D
:102CA00000209A490988081A98490880974800889E
:102CB00000280DDD607E00F0100048B992480078D1
:102CC00040F002009049087090480088FFF769FAC8
:102CD0008A4800E095E190F8311090F8300001EB5F
:102CE000002088490880A08A0988884202DB85483C
:102CF000008810B9A08A83490880824800886082D1
:102D00008148007800F00300F0B30020804908807B
:102D1000FEF73EFC00BF7C48007800F0200040B188
:102D200000207B49088060761421744880F82F10B9
:102D3000C9E07548007800F0100068B100207449BF
:102D4000088001202082042060760020E076112196
:102D50006A4880F82F10B6E06D480088002819DD19
:102D60006948007800F0010008B100202082208A24
:102D700068B9608A66490988884202DA608A6449CB
:102D800008806348008800E028E0208202E0208A72
:102D90005F4908800020E07600BF604800685E4917
:102DA00008605B48008800280BDD208A002808DDC9
:102DB000208A2830554908801821504880F82F1063
:102DC00085E05148007800F0020038B128204F49D2
:102DD00008801021494880F82F1078E01AE14A480D
:102DE000007800F0010030B10020607610204649E4
:102DF0000870FEF7CDFB5FE044480088002803DD43
:102E000042480088FFF7CDF93C4890F82F0000F0C9
:102E10000100A8B13C48007800F0010028B107206B
:102E200060760020A076208201E0062060760120F6
:102E3000FFF7B7F9102034490870FEF7A9FB3DE011
:102E40003148007800F0010020B1052060760020B4
:102E50002082DFE02D480088002800DD2EE0D9E048
:102E60002A480088002803DD28480088FFF799F9E0
:102E7000224890F82F0000F0010068B1072060762A
:102E80000020A0760120FFF78CF910201E49087061
:102E9000FEF77EFB12E077E01C480088002800DD8A
:102EA0000CE0B7E00AE01848007800F0010018B123
:102EB000072060760020A07600BFABE010210F480D
:102EC00080F82F1000BF28201049088000BF502133
:102ED0000A4880F82E1000BF217A084880F82A108E
:102EE000617A80F82B10A17A80F82C10E17A80F8B2
:102EF0002D10217B14E000007400002068020020E7
:102F00007500002076000020600000205C0000209A
:102F10005E000020640000205400002058000020C3
:102F200080F82610617B80F82710A17B80F828109C
:102F3000E17B80F829100621C175A1884184E188D0
:102F4000818400BF40480188404841833E48418811
:102F50003E48818300BF00BF2188C183618801840E
:102F600000BF607E00F0100030B10021374880F8CB
:102F7000311080F8301006E00121344880F830101C
:102F80006E2180F8311000BF4021304881753048F3
:102F9000008801122D4801742D4801782B48417496
:102FA000002180F8351080F834104186FFF704F8CE
:102FB000C04381B2254841864520244988730021B9
:102FC0002248C1734175017522480088401C21497F
:102FD00008800846008801121C4881741D48017849
:102FE0001A48C17400210183FEF7B5FFC04381B2C6
:102FF000164801831848C08B401C81B21648C18313
:1030000000BF15488088401C134988800020134960
:10301000087070BD00200E4908801049087000BF7C
:10302000F7E770B504460D46002D0CDD0C490D8008
:103030000C480068844206D00846028821460948A8
:10304000006800F0DAFB70BD40000020680200203C
:103050005C00002068000020801600206000002036
:103060005E000020580000200020F34908700DE0A9
:10307000F148007800EB4000F04901EB80000021AE
:103080000160ED480078401CEB490870EA48007880
:103090000828EDDB7047EA490978491CE84A1170B5
:1030A0000021E54A117017E0E349097801EB41017D
:1030B000E24A02EB810001884288114339B1817AEA
:1030C000DF4A1278511A782901DB00210160DA49C0
:1030D0000978491CD84A1170D74909780829E3DBD7
:1030E000704710B502460023D34C23701FE0D24B2B
:1030F0001B7803EB4303D14C04EB830003888BB1B3
:1031000043887BB113880488A3420BD15388448839
:10311000A34207D10B6843608B880381C84B1B789F
:10312000837210BDC44B1B785B1CC34C2370C24B15
:103130001B78082BDBDB0023BF4C237010E0BE4B59
:103140001B7803EB4303BD4C04EB8300038813B9E6
:10315000438803B908E0B84B1B785B1CB64C23705E
:10316000B54B1B78082BEADB00BFB34B1B78082B51
:1031700034D10023B34C2370B34C2370AE4C237076
:103180001DE0AD4B1B7803EB4303AC4C04EB830019
:10319000837AAB4C2478E31AAA4C2478A34209DD45
:1031A000837AA74C2478E31AA64C2370A24B1B7891
:1031B000A54C2370A04B1B785B1C9F4C23709E4B2F
:1031C0001B78082BDDDBA04B1B789B4C2370234620
:1031D0001B7803EB4303994C04EB830013680360F3
:1031E0000B6843608B880381954B1B78837200BF0B
:1031F00097E710B5954800882A2803D20020934904
:10320000088010BD0020914908809148808AB0F55F
:10321000807F03D0B0F5007F54D141E08C48C08C52
:103220008C49098888423AD18948008D8949498862
:10323000884234D186491631881DFFF752FF4FF47A
:103240000070834988820846D1F816200262498BB3
:10325000818481490A68C0F81620898841837E49A3
:103260000A68C0F806208988418101460A6A02601E
:10327000898C8180808B7649C8840846C18B018502
:103280007448008872498883724841887048C183B5
:103290004FF4C1606E4988812A206C49088011E092
:1032A0006B48C08C6B49098888420AD16848008DF8
:1032B00068494988884204D165491631881DFFF75D
:1032C00010FF00BF00BF00BF9BE710B56048C08B78
:1032D0006249098888420CD15D48008C5F49498861
:1032E000884206D15A485E490A680260898881800E
:1032F00091E05748C08B5B490988084055490988C7
:10330000584A1288114088420BD15148008C5549C7
:10331000498808404F494988524A5288114088429A
:1033200008D000BF50480088504908804E48408867
:10333000488008E000BF4648C08B4C49088044489C
:10334000008C488000BF00203B49087016E03A48D6
:10335000007800EB4000394901EB800443480088C5
:103360002188884205D1414840886188884200D13F
:1033700008E031480078401C2F4908702E4800783A
:103380000828E4DB00BF2C48007808283ED1FF2243
:1033900006212F4800F076FA2D4800210162818431
:1033A0002D490A68C0F80620898841812A490A689F
:1033B000C0F816208988418300BF2C480088244922
:1033C000C8842A4841882248018500BF00BF21489F
:1033D00000881F4988831F4841881D48C18300BF5A
:1033E0004FF480701A498882C8810820088206201C
:1033F00088740420C8744FF4C160888101F13600DC
:103400001B4908602A201149088010BD10486168D6
:103410000160218981800E480F490A68C0F80620A2
:103420008988418108200A498881084800880E302F
:103430000649088000BFE8E77C000020AC160020A9
:103440007E0000207F0000207D0000205C00002026
:1034500068020020400000204C0000207E4400084C
:103460007844000848000020440000207800002034
:10347000540000200948804709480047FEE7FEE75E
:10348000FEE7FEE7FEE7FEE7FEE7FEE7FEE7FEE714
:1034900004480549054A064B704700006F3500088F
:1034A0002101000868180020681E0020681A00200A
:1034B000681A00200CB50020019000906348006855
:1034C00040F480306149086000BF6048006800F443
:1034D000003000900198401C0190009818B90198A4
:1034E000B0F5A06FF1D15948006800F4003010B178
:1034F0000120009001E0002000900098012831D1C7
:10350000524840685149486008464068486008464B
:10351000406848600846406820F47C1048600846CF
:10352000406840F4981048600846006840F0807099
:10353000086000BF4548006800F000700028F9D01E
:103540004248406820F0030040494860084640680F
:1035500040F00200486000BF3C48406800F00C00AA
:103560000828F9D10CBD10B5FFF7A4FF10BD10B5A8
:103570003648006840F00100344908600846406859
:1035800033490840314948600846006831490840DD
:103590002E4908600846006820F48020086008462C
:1035A000406820F4FE0048604FF41F00886000204F
:1035B000C862FFF7D8FF4FF000602749086010BDD0
:1035C00030B50021002000220023204C646804F064
:1035D0000C0121B1042906D0082925D107E01F4C90
:1035E0001F4D2C6024E01D4C1D4D2C6020E0174C1D
:1035F000646804F47010154C646804F4803202248A
:1036000004EB904022B9174C4443154D2C600AE05E
:103610000E4CE46A04F00F04631C104CB4FBF3F48A
:1036200044430F4D2C6003E00C4C0D4D2C6000BF4B
:1036300000BF064C6468C4F303140B4D295D084CAD
:103640002468CC40064D2C6030BD000000100240C4
:103650000000FFF8FFFFF6FE08ED00E000127A0020
:103660008000002000093D00840000200FB40449C0
:1036700010B503AA029800F03BF910BC5DF814FBEA
:10368000601700202DE9F05F894604464FF0000ADC
:10369000DFF824B1FB44C0F820A02046E168884749
:1036A00000287DD0252806D0D4E901219047206A42
:1036B000401C2062F1E700255F462046E16888470C
:1036C0002028064607DB312E05D2B81910F8200C49
:1036D00008B10543F1E7A80701D525F00405C4F8B2
:1036E0001CA00027C4F818A02A2E09D0304600F0EC
:1036F000ABFE38B304EB8708303EC8F8186019E019
:1037000059F8041B204604EB87029161E168884761
:10371000012F064618D1E069002820DA25F020059F
:103720001DE0D8F8180000EB800006EB40003038B0
:10373000C8F818002046E1688847064600F084FE75
:103740000028EED1012F0AD02E2E08D12046E168A4
:1037500088477F1C0646022F45F02005C4DBA06980
:10376000002803DA404245F00105A061E80701D0D6
:1037700025F01005A6B1A6F14100192802D820367F
:1037800045F400654A463146204625604D46FCF723
:1037900001FD60B1012807D0ED1D25F0070000E014
:1037A00007E000F1080978E705F1040975E73046FC
:1037B0007AE7206ABDE8F09FEA0D000010B5431CCF
:1037C00002E010F8011B71B18107FAD14FF001320C
:1037D00002C88C1A8C4314EAC211F9D0C01A0A0626
:1037E00003D0C01E10BDC01A10BD0A0401D0801E37
:1037F00010BD0902FCD0401E10BD032A40F23080EB
:1038000010F0030C00F0158011F8013BBCF1020F21
:10381000624498BF11F801CB00F8013B38BF11F8A2
:10382000013BA2F1040298BF00F801CB38BF00F8B9
:10383000013B11F0030300F06D80083AC0F00880EE
:1038400051F8043B083A51F804CBA0E80810F5E71A
:10385000121D5CBF51F8043B40F8043BAFF30080FD
:10386000D20724BF11F8013B11F801CB48BF11F872
:10387000012B24BF00F8013B00F801CB48BF00F842
:10388000012B704702F0FF0343EA032242EA02429F
:1038900000F074B810B5044610F0030F08BF11F023
:1038A000030F40F015804FF0013E121FC0F20E8052
:1038B00051F8043BA3EB0E0C2CEA030C1CEACE1CC3
:1038C00008BF40F8043BF0D0A1F1040102F104026A
:1038D000521E08DB11F8013B002B00F8013BF7D129
:1038E000114600F049F8204610BD704770477047F8
:1038F000074B70B50D467B4400F065F8044628463A
:1039000000F074F810B14FF0FF3070BD204670BD6C
:103910005D0B000010B5203AC0F00B80B1E81850E4
:10392000203AA0E81850B1E81850A0E81850BFF4A9
:10393000F5AF5FEA027C24BFB1E81850A0E8185048
:1039400044BF18C918C0BDE810405FEA827C24BF9C
:1039500051F8043B40F8043B08BF7047D20728BF2A
:1039600031F8023B48BF11F8012B28BF20F8023B79
:1039700048BF00F8012B70474FF000020429C0F047
:10398000128010F0030C00F0D380CCF1040CBCF1D9
:10399000020F18BF00F8012BA8BF20F8022BA1EBE3
:1039A0000C0100F0C5B85FEAC17C24BF00F8012B10
:1039B00000F8012B48BF00F8012B704701694A1C31
:1039C00002610878704700B58FB0CDE90131002160
:1039D000059105497944CDE9031011466846FFF782
:1039E00051FE0FB000BD0000E5FFFFFF007B00F0BF
:1039F0008000704710B54248542100F097F84148C4
:103A0000542100F093F84048542100F08FF83F49CA
:103A10003B483C4A3F4B08603D490A603A491960BF
:103A2000531C0365481C1065012008653B48344A57
:103A300039A1784400F02EFA20B9384878440A3881
:103A400000F0CAFA37482F4A35A1784400F022FA2C
:103A500020B9344878440A3800F0BEFA32482A4A7D
:103A60002FA1784400F016FA20B92F4878440A387C
:103A700000F0B2FA40232248DC000021224600F088
:103A8000E6F920B125487844543800F0A5FA1D48DD
:103A900022464023002100F0DAF920B12148784481
:103AA000543800F099FA184822461023002100F0FB
:103AB000CEF9002806D01C487844BDE8104056389E
:103AC00000F08ABA10BD104870B5006D20F00104F6
:103AD0000B4800F055FA0B4800F052FA0A4800F083
:103AE0004FFA09E0206D20F00105204600F048FA69
:103AF000204600F09AF82C46002CF3D170BD00004F
:103B00000C17002060170020B4170020940000203C
:103B1000980000209C000020720000005D0A000058
:103B200077000000490A0000350A00004FF000024B
:103B300000B5134694469646203922BFA0E80C50A3
:103B4000A0E80C50B1F12001BFF4F7AF090728BF7E
:103B5000A0E80C5048BF0CC05DF804EB890028BFFA
:103B600040F8042B08BF704748BF20F8022B11F023
:103B7000804F18BF00F8012B70470EB5CDE900014A
:103B8000FFF71CFE029069460120ABBE0EBD08B5D2
:103B9000694600900220ABBE08BD1FB58DE8070046
:103BA00069460520ABBE04B010BD1FB58DE80F00FF
:103BB00069460620ABBEF6E708B5694600900920C5
:103BC000ABBE08BD1CB5CDE9000169460A20ABBEFD
:103BD0001CBD704708B5694600900C20ABBE08BDFF
:103BE000754600F001FAAE4605006946534620F0DE
:103BF0000700854618B020B5FFF74AFCBDE8204015
:103C00004FF000064FF000074FF000084FF0000B98
:103C100021F00701AC46ACE8C009ACE8C009ACE84B
:103C2000C009ACE8C0098D46704770B50446051F51
:103C300000F0E0F90068002C14BF446870BD002C4F
:103C400018BFAC423CBF20466468F8D301680A182C
:103C5000AA4218BF456003D12A6805461144016095
:103C600028684119A1421CBF6C6070BD6168696021
:103C700021680844286070BD2DE9F04705460C46D0
:103C8000C86820F4201040F48000C860800602D587
:103C9000084600F0FCFAE06841F282014FF0FF397B
:103CA0000140022903D0204600F09AFAB5E000F462
:103CB0002041B1F5004F0FD1C00306D56168E06A1D
:103CC000884200D80846606006E02069E0626060D3
:103CD0006069FFF77FFFA061A0680022EEB20028B4
:103CE0000DDAE1688B050AD4C043A06041F490303E
:103CF0002260E0606068411C61600670A5E0E068D9
:103D00009046226040F40050E060206968BB606922
:103D1000FFF752FF012704F12405A0B1A08910F498
:103D2000407F08D0E06900F0B0F9206118B1E06888
:103D300040F4006016E0E7612561E06820F440701F
:103D400040F480600EE0E06900F09FF900282061F7
:103D5000F1D0E06840F4006010F4407FE06002D1F0
:103D600040F48070E06020696060E06825696FF071
:103D7000010AC1051FD56168E06A884200D808467B
:103D8000411B04D02246284600F034FAF0BBE0681C
:103D9000010203D5E562C4E9015854E0691CE162FF
:103DA0006160E16940F48030491EC4E90210304688
:103DB0002E70BDE8F087010202D500F480320AE0DF
:103DC0006068411C61600670E0680A2E40F4803033
:103DD000E06006D00022E16A6068814203D90B46A8
:103DE00002E00122F7E70346A7895B1B7F0503D4A6
:103DF000E7699F4200DDE2B1814200D80146E562F9
:103E00000F1AC4E90158002B09DD00E005E0224645
:103E10001946284600F0EEF908B14846C9E747B10F
:103E2000A069E5626560C01BA061E06840F0100019
:103E3000E060E068000208D56168A069E562491B9E
:103E400008446560A0615046B3E73046B1E770B5FD
:103E5000C468A50713D0650211D4B2F5807F09D0DC
:103E6000B2F5007F06D0B2F5806F08D1012300F1D2
:103E7000240106E05D1E6FF07F46B54201D30120AC
:103E800070BD0161C361416024F470611143C16080
:103E9000002070BD2DE9F0410C460746164610463D
:103EA00000F06EF82078611C61280AD0722802D0D8
:103EB00077283CD102E00125002405E002250424F6
:103EC00002E0082448F2020511F8010B2B2806D065
:103ED000622809D011F8010C74280AD00BE045F0D3
:103EE000030544F00204EFE745F0040544F0010443
:103EF000EAE744F0100438462146FFF73EFE411C35
:103F000015D00021316171604FF40071F560F161ED
:103F10007061200704D530460222002100F0E4F849
:103F2000306D40F0010030653046BDE8F081002082
:103F3000FBE72DE9F0410D460646104C206DC10708
:103F400004D0410804D020F00104F7E722460EE037
:103F5000542000F09AF807000ED0206D47F00101C0
:103F60000843542120653846FFF7E0FD3A462946CC
:103F70003046BDE8F0418DE70020D6E70C17002061
:103F80002DE9F04704464FF000094FF0FF37C568B0
:103F9000D4E90486A80707D0204600F055F930463A
:103FA000FFF7F5FD002802DA3846BDE8F08728055E
:103FB00002D54046FFF739FE4C212046FFF7B6FDFB
:103FC000206D20F0010020654846EEE70446AFF37F
:103FD00000802046FCF7F5F810B500F07FF9BDE849
:103FE000104000F075B90000004870470818002024
:103FF0007047000000487047101800207047704755
:104000007047704738B504460A4600206946AFF34A
:104010000080002808BF38BD02460099204600F005
:1040200084F9012038BD012000F0D3B9F8B5AFF311
:104030000080054600200C46102000BF0646A81947
:10404000A0420DD9324669460020AFF30080070038
:1040500008BF00F0BEF90098A04218BF0546C41979
:10406000FFF7C8FF05600746F01D20F0070046195E
:10407000284600F053F9B44208BFF8BDA21B3146F0
:104080003868BDE8F84000F050B970B50646FFF753
:10409000B1FF056806F10B0020F00704B4429CBF95
:1040A000002070BD2B466A68BAB11068A04210D3D8
:1040B00004F1080188423CBF5068586007D351683A
:1040C000101941601168091B016058601460101DCF
:1040D00070BD13465268002AE7D121462846FFF7F3
:1040E00091FF0028DED170BD2DE9F041044616464F
:1040F0000D464769007B80072ED03846FFF75CFDF0
:1041000050BB3EB3012E02D0022E25D104E0204642
:1041100000F025F905441DE03846FFF75BFDE16836
:10412000002841F01001E16005DA204600F058F85F
:104130000120BDE8F081C9030BD56268E16A9142B4
:1041400000D81146A26911442269891A814200DD12
:1041500008460544002D01DA0220EAE7E16A6068BA
:10416000E268814206D29103E06203D522F4003175
:1041700041F01002A6690027AE4213DCE16A8142D9
:1041800001D90B4600E0034603EB060C2369ACEBB8
:10419000030CAC4506DD814201D98C4600E0844623
:1041A0009C4505D1A760276042F02000A5620DE084
:1041B000AD1BE669AE1B8142A66000D90846C01A55
:1041C000281A20605819606022F020000349084036
:1041D000E060002084F84870ABE70000BFCFD7FF55
:1041E000C16821F4001141F08001C16000218160AB
:1041F000016070472DE9F047814614460E464FF0A6
:10420000FF383248D5685769054209D03846A16958
:10421000FFF7D8FC002811DB2C48C0430540E560BF
:104220002B46324649463846FFF7B7FCA16920F0D5
:104230000042B21A11440028A16103D02046FFF7C2
:10424000CFFF4046BDE8F08770B504460569C06AF7
:104250006168884200D80846E16821F42011E160D5
:10426000C90312D5A84208D02246411B2846FFF7B1
:10427000C1FF10B14FF0FF3070BD0020E562C4E90E
:104280000150E06820F48030E060002070BD10B57F
:104290000446C06820F02000E060A16AA06988425E
:1042A0000DD02046FFF7D0FFE06820F4405040F0EA
:1042B0001000E060A06AA0612069E062606044F2E2
:1042C0004001E0688843E06010BD0000100002007B
:1042D000002801D000F01CB87047000010B501465E
:1042E00002A000F05DF8012010BD000053494752C4
:1042F000545245443A2052656469726563743A20A9
:1043000063616E2774206F70656E3A2000000000B4
:1043100001491820ABBEFEE7260002000021016023
:10432000C0E90110704710207047034640688C4672
:10433000002818BF88423CBF03464068F8D318687D
:104340001844884207D00CF1030020F00700001D3C
:10435000411A521A0146081D0A60FFF766BC10B5E3
:104360000146C268900703D0900607D5886A0AE024
:1043700000F03EF801210160881E10BD8B6948687D
:1043800018440B69C01A91F848301BB191F84910D4
:10439000401A10BD1103FCD50028FADD401E10BDE7
:1043A00070B505460C460A2000E06D1C00F018F8B8
:1043B00035B128780028F8D102E0641C00F010F82C
:1043C00014B120780028F8D1BDE870400A2000F030
:1043D00007B810B500F010F8BDE81040FFF778BF3F
:1043E00008B569468DF800000320ABBE08BD00008B
:1043F000004870470818002010B5012805D000219A
:1044000003A0FFF7CDFF012010BD09A1F8E70000D0
:1044100053494752544D454D3A204F7574206F66AD
:104420002068656170206D656D6F72790000000015
:104430003A2048656170206D656D6F727920636FF9
:10444000727275707465640030380A2801D20120D8
:104450007047002070478A68002A01DCFFF70CBC17
:10446000521E8A604A68C0B2531C4B60107070477D
:10447000FFFFFFFF00000000FFFFFFFFFFFFFFFF48
:10448000FFFF04000008000000000000000200011F
:104490000000103A7474003A7474003A74740000A6
:1044A000C044000800000020A00000005C010008DB
:1044B00060450008A0000020C81D00007801000829
:1044C00000000000010203040102030406070809BA
:1044D00002040608000000000000000000000000C8
:1044E00000000000000000000000000000000000CC
:1044F00000000000000000000000000000000000BC
:1045000000000000000000000000000000000000AB
:10451000000000000000000000000000000000009B
:10452000000000000000000000000000000000008B
:10453000000000000000000000000000000000007B
:1045400000366E01000000000000000001020304BC
:10455000060708090000000000000000000000003D
:040000050800347546
:00000001FF
